{
  "transactions": [
    {
      "hash": "0xa2349fbb3c71e24915cf05773f5cdd3a08da42d52609e5c8ddcecd17a46faf08",
      "transactionType": "CALL",
      "contractName": null,
      "contractAddress": "0x779877a7b0d9e8603169ddbd7836e478b4624789",
      "function": "transferAndCall(address,uint256,bytes)",
      "arguments": [
        "0x9DdfaCa8183c41ad55329BdeeD9F6A8d53168B1B",
        "3000000000000000000",
        "0x99cbbdbe249fe278fa35b47d063244f036aaf4a60be3f0a548213636211ba511"
      ],
      "transaction": {
        "from": "0x39c2a33a4ad94b04433d37639c3fe3126615da7c",
        "to": "0x779877a7b0d9e8603169ddbd7836e478b4624789",
        "gas": "0x14cbb",
        "value": "0x0",
        "input": "0x4000aea00000000000000000000000009ddfaca8183c41ad55329bdeed9f6a8d53168b1b00000000000000000000000000000000000000000000000029a2241af62c00000000000000000000000000000000000000000000000000000000000000000060000000000000000000000000000000000000000000000000000000000000002099cbbdbe249fe278fa35b47d063244f036aaf4a60be3f0a548213636211ba511",
        "nonce": "0x7",
        "chainId": "0xaa36a7"
      },
      "additionalContracts": [],
      "isFixedGasLimit": false
    }
  ],
  "receipts": [
    {
      "status": "0x1",
      "cumulativeGasUsed": "0xc9d3e1",
      "logs": [
        {
          "address": "0x779877a7b0d9e8603169ddbd7836e478b4624789",
          "topics": [
            "0xddf252ad1be2c89b69c2b068fc378daa952ba7f163c4a11628f55a4df523b3ef",
            "0x00000000000000000000000039c2a33a4ad94b04433d37639c3fe3126615da7c",
            "0x0000000000000000000000009ddfaca8183c41ad55329bdeed9f6a8d53168b1b"
          ],
          "data": "0x00000000000000000000000000000000000000000000000029a2241af62c0000",
          "blockHash": "0x43cb983e7ad83d47ac94d7c4f9730c8068027ba268d873836eed31671ad12708",
          "blockNumber": "0x6e591d",
          "transactionHash": "0xa2349fbb3c71e24915cf05773f5cdd3a08da42d52609e5c8ddcecd17a46faf08",
          "transactionIndex": "0x77",
          "logIndex": "0xe2",
          "removed": false
        },
        {
          "address": "0x779877a7b0d9e8603169ddbd7836e478b4624789",
          "topics": [
            "0xe19260aff97b920c7df27010903aeb9c8d2be5d310a2c67824cf3f15396e4c16",
            "0x00000000000000000000000039c2a33a4ad94b04433d37639c3fe3126615da7c",
            "0x0000000000000000000000009ddfaca8183c41ad55329bdeed9f6a8d53168b1b"
          ],
          "data": "0x00000000000000000000000000000000000000000000000029a2241af62c00000000000000000000000000000000000000000000000000000000000000000040000000000000000000000000000000000000000000000000000000000000002099cbbdbe249fe278fa35b47d063244f036aaf4a60be3f0a548213636211ba511",
          "blockHash": "0x43cb983e7ad83d47ac94d7c4f9730c8068027ba268d873836eed31671ad12708",
          "blockNumber": "0x6e591d",
          "transactionHash": "0xa2349fbb3c71e24915cf05773f5cdd3a08da42d52609e5c8ddcecd17a46faf08",
          "transactionIndex": "0x77",
          "logIndex": "0xe3",
          "removed": false
        },
        {
          "address": "0x9ddfaca8183c41ad55329bdeed9f6a8d53168b1b",
          "topics": [
            "0x1ced9348ff549fceab2ac57cd3a9de38edaaab274b725ee82c23e8fc8c4eec7a",
            "0x99cbbdbe249fe278fa35b47d063244f036aaf4a60be3f0a548213636211ba511"
          ],
          "data": "0x000000000000000000000000000000000000000000000002b5e3af16b1880000000000000000000000000000000000000000000000000002df85d331a7b40000",
          "blockHash": "0x43cb983e7ad83d47ac94d7c4f9730c8068027ba268d873836eed31671ad12708",
          "blockNumber": "0x6e591d",
          "transactionHash": "0xa2349fbb3c71e24915cf05773f5cdd3a08da42d52609e5c8ddcecd17a46faf08",
          "transactionIndex": "0x77",
          "logIndex": "0xe4",
          "removed": false
        }
      ],
      "logsBloom": "0x000000040000000004000000000000000000000000200000000000000200000000000000000000000000001000000000000000000000000000000000000000000800000000000000a0000008000000000000000000000000000020000020000008000000000000000000000000000000000000000000000000000010000040000000000000000000000000010000800000000020000000000000000000000000000000000000000000000000010000000000000000000000000004000000000000000002000000000000000000000000000000000000000100000000000000000010000000000000800000000000000000000000200000000000000000000000",
      "type": "0x2",
      "transactionHash": "0xa2349fbb3c71e24915cf05773f5cdd3a08da42d52609e5c8ddcecd17a46faf08",
      "transactionIndex": "0x77",
      "blockHash": "0x43cb983e7ad83d47ac94d7c4f9730c8068027ba268d873836eed31671ad12708",
      "blockNumber": "0x6e591d",
      "gasUsed": "0xf0e5",
      "effectiveGasPrice": "0x2f6f39",
      "from": "0x39c2a33a4ad94b04433d37639c3fe3126615da7c",
      "to": "0x779877a7b0d9e8603169ddbd7836e478b4624789",
      "contractAddress": null
    }
  ],
  "libraries": [],
  "pending": [],
  "returns": {},
  "timestamp": 1733597845,
  "chain": 11155111,
  "commit": "051bc37"
}